{
  "_format": "hh-sol-artifact-1",
  "contractName": "FoodCommerce",
  "sourceName": "contracts/FoodCommerce.sol",
  "abi": [
    {
      "anonymous": false,
      "inputs": [
        {
          "indexed": true,
          "internalType": "address",
          "name": "customer",
          "type": "address"
        },
        {
          "indexed": false,
          "internalType": "uint256",
          "name": "total",
          "type": "uint256"
        },
        {
          "indexed": false,
          "internalType": "string",
          "name": "ipfsHash",
          "type": "string"
        },
        {
          "indexed": false,
          "internalType": "uint256",
          "name": "timestamp",
          "type": "uint256"
        }
      ],
      "name": "OrderCreated",
      "type": "event"
    },
    {
      "inputs": [
        {
          "internalType": "address",
          "name": "_customer",
          "type": "address"
        },
        {
          "internalType": "uint256",
          "name": "_total",
          "type": "uint256"
        },
        {
          "internalType": "string",
          "name": "_ipfsHash",
          "type": "string"
        }
      ],
      "name": "createOrder",
      "outputs": [],
      "stateMutability": "nonpayable",
      "type": "function"
    },
    {
      "inputs": [],
      "name": "getOrders",
      "outputs": [
        {
          "components": [
            {
              "internalType": "address",
              "name": "customer",
              "type": "address"
            },
            {
              "internalType": "uint256",
              "name": "total",
              "type": "uint256"
            },
            {
              "internalType": "string",
              "name": "ipfsHash",
              "type": "string"
            },
            {
              "internalType": "uint256",
              "name": "timestamp",
              "type": "uint256"
            }
          ],
          "internalType": "struct FoodCommerce.Order[]",
          "name": "",
          "type": "tuple[]"
        }
      ],
      "stateMutability": "view",
      "type": "function"
    },
    {
      "inputs": [
        {
          "internalType": "uint256",
          "name": "",
          "type": "uint256"
        }
      ],
      "name": "orders",
      "outputs": [
        {
          "internalType": "address",
          "name": "customer",
          "type": "address"
        },
        {
          "internalType": "uint256",
          "name": "total",
          "type": "uint256"
        },
        {
          "internalType": "string",
          "name": "ipfsHash",
          "type": "string"
        },
        {
          "internalType": "uint256",
          "name": "timestamp",
          "type": "uint256"
        }
      ],
      "stateMutability": "view",
      "type": "function"
    }
  ],
  "bytecode": "0x608060405234801561001057600080fd5b50610ef6806100206000396000f3fe608060405234801561001057600080fd5b50600436106100415760003560e01c806317fd7471146100465780632e2dc43e14610062578063a85c38ef14610080575b600080fd5b610060600480360381019061005b9190610706565b6100b3565b005b61006a6102d5565b6040516100779190610937565b60405180910390f35b61009a60048036038101906100959190610959565b610430565b6040516100aa94939291906109ee565b60405180910390f35b600073ffffffffffffffffffffffffffffffffffffffff168373ffffffffffffffffffffffffffffffffffffffff1603610122576040517f08c379a000000000000000000000000000000000000000000000000000000000815260040161011990610a86565b60405180910390fd5b60008211610165576040517f08c379a000000000000000000000000000000000000000000000000000000000815260040161015c90610b18565b60405180910390fd5b60008151116101a9576040517f08c379a00000000000000000000000000000000000000000000000000000000081526004016101a090610b84565b60405180910390fd5b600060405180608001604052808573ffffffffffffffffffffffffffffffffffffffff16815260200184815260200183815260200142815250908060018154018082558091505060019003906000526020600020906004020160009091909190915060008201518160000160006101000a81548173ffffffffffffffffffffffffffffffffffffffff021916908373ffffffffffffffffffffffffffffffffffffffff1602179055506020820151816001015560408201518160020190816102719190610db0565b506060820151816003015550508273ffffffffffffffffffffffffffffffffffffffff167f93badc511e64cfbc86fb9659074a17fbd96d2cd7f56f35d70c4aec0077507c3b8383426040516102c893929190610e82565b60405180910390a2505050565b60606000805480602002602001604051908101604052809291908181526020016000905b8282101561042757838290600052602060002090600402016040518060800160405290816000820160009054906101000a900473ffffffffffffffffffffffffffffffffffffffff1673ffffffffffffffffffffffffffffffffffffffff1673ffffffffffffffffffffffffffffffffffffffff1681526020016001820154815260200160028201805461038c90610bd3565b80601f01602080910402602001604051908101604052809291908181526020018280546103b890610bd3565b80156104055780601f106103da57610100808354040283529160200191610405565b820191906000526020600020905b8154815290600101906020018083116103e857829003601f168201915b50505050508152602001600382015481525050815260200190600101906102f9565b50505050905090565b6000818154811061044057600080fd5b90600052602060002090600402016000915090508060000160009054906101000a900473ffffffffffffffffffffffffffffffffffffffff169080600101549080600201805461048f90610bd3565b80601f01602080910402602001604051908101604052809291908181526020018280546104bb90610bd3565b80156105085780601f106104dd57610100808354040283529160200191610508565b820191906000526020600020905b8154815290600101906020018083116104eb57829003601f168201915b5050505050908060030154905084565b6000604051905090565b600080fd5b600080fd5b600073ffffffffffffffffffffffffffffffffffffffff82169050919050565b60006105578261052c565b9050919050565b6105678161054c565b811461057257600080fd5b50565b6000813590506105848161055e565b92915050565b6000819050919050565b61059d8161058a565b81146105a857600080fd5b50565b6000813590506105ba81610594565b92915050565b600080fd5b600080fd5b6000601f19601f8301169050919050565b7f4e487b7100000000000000000000000000000000000000000000000000000000600052604160045260246000fd5b610613826105ca565b810181811067ffffffffffffffff82111715610632576106316105db565b5b80604052505050565b6000610645610518565b9050610651828261060a565b919050565b600067ffffffffffffffff821115610671576106706105db565b5b61067a826105ca565b9050602081019050919050565b82818337600083830152505050565b60006106a96106a484610656565b61063b565b9050828152602081018484840111156106c5576106c46105c5565b5b6106d0848285610687565b509392505050565b600082601f8301126106ed576106ec6105c0565b5b81356106fd848260208601610696565b91505092915050565b60008060006060848603121561071f5761071e610522565b5b600061072d86828701610575565b935050602061073e868287016105ab565b925050604084013567ffffffffffffffff81111561075f5761075e610527565b5b61076b868287016106d8565b9150509250925092565b600081519050919050565b600082825260208201905092915050565b6000819050602082019050919050565b6107aa8161054c565b82525050565b6107b98161058a565b82525050565b600081519050919050565b600082825260208201905092915050565b60005b838110156107f95780820151818401526020810190506107de565b60008484015250505050565b6000610810826107bf565b61081a81856107ca565b935061082a8185602086016107db565b610833816105ca565b840191505092915050565b600060808301600083015161085660008601826107a1565b50602083015161086960208601826107b0565b50604083015184820360408601526108818282610805565b915050606083015161089660608601826107b0565b508091505092915050565b60006108ad838361083e565b905092915050565b6000602082019050919050565b60006108cd82610775565b6108d78185610780565b9350836020820285016108e985610791565b8060005b85811015610925578484038952815161090685826108a1565b9450610911836108b5565b925060208a019950506001810190506108ed565b50829750879550505050505092915050565b6000602082019050818103600083015261095181846108c2565b905092915050565b60006020828403121561096f5761096e610522565b5b600061097d848285016105ab565b91505092915050565b61098f8161054c565b82525050565b61099e8161058a565b82525050565b600082825260208201905092915050565b60006109c0826107bf565b6109ca81856109a4565b93506109da8185602086016107db565b6109e3816105ca565b840191505092915050565b6000608082019050610a036000830187610986565b610a106020830186610995565b8181036040830152610a2281856109b5565b9050610a316060830184610995565b95945050505050565b7f437573746f6d657220616464726573732063616e6e6f74206265207a65726f00600082015250565b6000610a70601f836109a4565b9150610a7b82610a3a565b602082019050919050565b60006020820190508181036000830152610a9f81610a63565b9050919050565b7f4f7264657220746f74616c206d7573742062652067726561746572207468616e60008201527f207a65726f000000000000000000000000000000000000000000000000000000602082015250565b6000610b026025836109a4565b9150610b0d82610aa6565b604082019050919050565b60006020820190508181036000830152610b3181610af5565b9050919050565b7f4950465320686173682063616e6e6f7420626520656d70747900000000000000600082015250565b6000610b6e6019836109a4565b9150610b7982610b38565b602082019050919050565b60006020820190508181036000830152610b9d81610b61565b9050919050565b7f4e487b7100000000000000000000000000000000000000000000000000000000600052602260045260246000fd5b60006002820490506001821680610beb57607f821691505b602082108103610bfe57610bfd610ba4565b5b50919050565b60008190508160005260206000209050919050565b60006020601f8301049050919050565b600082821b905092915050565b600060088302610c667fffffffffffffffffffffffffffffffffffffffffffffffffffffffffffffffff82610c29565b610c708683610c29565b95508019841693508086168417925050509392505050565b6000819050919050565b6000610cad610ca8610ca38461058a565b610c88565b61058a565b9050919050565b6000819050919050565b610cc783610c92565b610cdb610cd382610cb4565b848454610c36565b825550505050565b600090565b610cf0610ce3565b610cfb818484610cbe565b505050565b5b81811015610d1f57610d14600082610ce8565b600181019050610d01565b5050565b601f821115610d6457610d3581610c04565b610d3e84610c19565b81016020851015610d4d578190505b610d61610d5985610c19565b830182610d00565b50505b505050565b600082821c905092915050565b6000610d8760001984600802610d69565b1980831691505092915050565b6000610da08383610d76565b9150826002028217905092915050565b610db9826107bf565b67ffffffffffffffff811115610dd257610dd16105db565b5b610ddc8254610bd3565b610de7828285610d23565b600060209050601f831160018114610e1a5760008415610e08578287015190505b610e128582610d94565b865550610e7a565b601f198416610e2886610c04565b60005b82811015610e5057848901518255600182019150602085019450602081019050610e2b565b86831015610e6d5784890151610e69601f891682610d76565b8355505b6001600288020188555050505b505050505050565b6000606082019050610e976000830186610995565b8181036020830152610ea981856109b5565b9050610eb86040830184610995565b94935050505056fea26469706673582212204bc08897fa721956dd5347d663d572c783763a54e5fb4ee23519c7d23797872064736f6c63430008180033",
  "linkReferences": {},
  "deployedLinkReferences": {}
}